:020000040800F2
:10100000003C0020A93F0008F13F00087D4900088E
:10101000814900088549000889490008000000004E
:101020000000000000000000000000008D490008E2
:1010300091490008000000009549000899490008FE
:10104000F13F0008F13F0008F13F0008F13F0008C0
:10105000F13F0008F13F0008F13F0008014B000894
:10106000000000009D490008C5490008014A000829
:10107000754A0008F13F0008F13F00080000000039
:10108000DD4A0008F13F000800000000A54A000802
:10109000C54A0008B54A0008F13F0008F13F0008C2
:1010A000F13F0008F13F0008F13F0008D94A00086D
:1010B000F13F0008000000000000000000000000F8
:0C10C000F13F000800000000F13F0008B4
:1010CC004FF0FF0C1CEAD0521EBF1CEAD15392EA1F
:1010DC000C0F93EA0C0F6FD01A4480EA010C4002FB
:1010EC0018BF5FEA41211ED04FF0006343EA501055
:1010FC0043EA5111A0FB01310CF00040B1F5000F97
:10110C003EBF490041EAD3715B0040EA010062F145
:10111C007F02FD2A1DD8B3F1004F40EBC25008BF2F
:10112C0020F00100704790F0000F0CF0004C08BF4D
:10113C0049024CEA502040EA51207F3AC2BFD2F11A
:10114C00FF0340EAC250704740F400004FF0000328
:10115C00013A5DDC12F1190FDCBF00F00040704762
:10116C00C2F10002410021FA02F1C2F1200200FAA0
:10117C0002FC5FEA310040F1000053EA4C0308BF67
:10118C0020EADC70704792F0000F00F0004C02BFB8
:10119C00400010F4000F013AF9D040EA0C0093F033
:1011AC00000F01F0004C02BF490011F4000F013B8D
:1011BC00F9D041EA0C018FE70CEAD15392EA0C0FFB
:1011CC0018BF93EA0C0F0AD030F0004C18BF31F066
:1011DC00004CD8D180EA010000F00040704790F03C
:1011EC00000F17BF90F0004F084691F0000F91F0E0
:1011FC00004F14D092EA0C0F01D142020FD193EAA6
:10120C000C0F03D14B0218BF084608D180EA01002D
:10121C0000F0004040F0FE4040F40000704740F009
:10122C00FE4040F44000704780F0004002E000BFF8
:10123C0081F0004142001FBF5FEA410392EA030FB5
:10124C007FEA226C7FEA236C6AD04FEA1262D2EBFF
:10125C001363C1BFD218414048404140B8BF5B4204
:10126C00192B88BF704710F0004F40F4000020F09D
:10127C007F4018BF404211F0004F41F4000121F0B3
:10128C007F4118BF494292EA030F3FD0A2F10102FD
:10129C0041FA03FC10EB0C00C3F1200301FA03F13B
:1012AC0000F0004302D5494260EB4000B0F5000F5E
:1012BC0013D3B0F1807F06D340084FEA310102F11D
:1012CC000102FE2A51D2B1F1004F40EBC25008BFCF
:1012DC0020F0010040EA03007047490040EB000099
:1012EC00013A28BFB0F5000FEDD2B0FA80FCACF19A
:1012FC00080CB2EB0C0200FA0CF0AABF00EBC250C7
:10130C0052421843BCBFD0401843704792F0000FB4
:10131C0081F4000106BF80F400000132013BB5E707
:10132C004FEA41037FEA226C18BF7FEA236C21D07D
:10133C0092EA030F04D092F0000F08BF08467047E2
:10134C0090EA010F1CBF0020704712F07F4F04D1B0
:10135C00400028BF40F00040704712F100723CBFC3
:10136C0000F50000704700F0004343F0FE4040F4ED
:10137C00000070477FEA226216BF08467FEA2363AB
:10138C000146420206BF5FEA412390EA010F40F496
:10139C00800070474FF0000304E000BF10F00043E2
:1013AC0048BF40425FEA000C08BF704743F09643C9
:1013BC0001464FF000001CE050EA010208BF7047E4
:1013CC004FF000030AE000BF50EA010208BF70476B
:1013DC0011F0004302D5404261EB41015FEA010C80
:1013EC0002BF84460146002043F0B64308BFA3F178
:1013FC008053A3F50003BCFA8CF2083AA3EBC2535A
:10140C0010DB01FA02FC634400FA02FCC2F1200278
:10141C00BCF1004F20FA02F243EB020008BF20F0AF
:10142C000100704702F1200201FA02FCC2F1200215
:10143C0050EA4C0021FA02F243EB020008BF20EA0A
:10144C00DC7070474FF0FF3C06E000BF4FF0010C22
:10145C0002E000BF4FF0010C4DF804CD4FEA400202
:10146C004FEA41037FEA226C18BF7FEA236C11D04C
:10147C0001B052EA530C18BF90EA010F58BFB2EBFF
:10148C00030088BFC81738BF6FEAE17018BF40F07F
:10149C00010070477FEA226C02D15FEA402C05D133
:1014AC007FEA236CE4D15FEA412CE1D05DF8040BB8
:1014BC00704700BF844608466146FFE70FB5FFF74B
:1014CC00C9FF002848BF10F1000F0FBD4DF808ED03
:1014DC00FFF7F4FF0CBF012000205DF808FB00BFF4
:1014EC004DF808EDFFF7EAFF34BF012000205DF84E
:1014FC0008FB00BF4DF808EDFFF7E0FF94BF01209B
:10150C0000205DF808FB00BF4DF808EDFFF7D2FF97
:10151C0094BF012000205DF808FB00BF4DF808EDDA
:10152C00FFF7C8FF34BF012000205DF808FB00BFA7
:10153C004FEA4002B2F1FE4F0FD34FF09E03B3EBD4
:10154C0012620DD94FEA002343F0004310F0004F14
:10155C0023FA02F018BF404270474FF0000070476A
:10156C0012F1610F01D1420205D110F0004008BF09
:10157C006FF0004070474FF00000704742000ED2F1
:10158C00B2F1FE4F0BD34FF09E03B3EB126209D4B2
:10159C004FEA002343F0004323FA02F070474FF068
:1015AC000000704712F1610F01D1420202D14FF0DD
:1015BC00FF3070474FF00000704700BF53B94AB975
:1015CC00002908BF00281CBF4FF0FF314FF0FF303F
:1015DC0000F00CB8ADF1080C6DE904CE04F0E0F8A5
:1015EC00DDF804E0DDE9022304B07047704700BF6A
:1015FC0010B5054C237833B9044B13B10448AFF341
:10160C0000800123237010BD58080020000000004A
:10161C00FC5A000808B5034B1BB103490348AFF350
:10162C00008008BD000000005C080020FC5A000887
:10163C00A449A5480B68CA6F00882DE9F04FD21A4F
:10164C0092B2A24C5509904283B02280658062D23E
:10165C009F48008890425ED99E480022028004F187
:10166C004006204601E051F8083F4A68D21A92B26F
:10167C0095422CBF0022012240F8042F8642F2D161
:10168C00A56BA368D4F818A0D4F804E06169A26A29
:10169C00D4F824B02069D4F820800193AE00656B97
:1016AC00E768D4F82CC083EA0A0946EAC50689EA39
:1016BC0002098EEA010585EA0B054FEA8909E369FF
:1016CC00009349EAC509256C236B354380EA08066B
:1016DC005E4049EA0609E66B009B45EA4605EEB218
:1016EC0087EA03057C4B85EA0C0549EA450593F826
:1016FC000090EDB2B9F1000F10D0DFF8E09199F83D
:10170C000090B9F1000F0FD1AE4211D0B4F85030A7
:10171C000133A4F8503003B0BDE8F08FDFF8BC9172
:10172C0099F80030002B60D0C6F10F06F6B2EBE74B
:10173C00684BB4F8465000261E80019B5B0243EABE
:10174C008E2343EA0C0343EA072343EAC013013513
:10175C0043EA81130099A4F8465043EA4A13256BD7
:10176C0043EA0113012D43EAC80308BF5C4E43EA68
:10177C008B0343EA420208BF35702F2A1BDD94F815
:10178C004830002B5BD1574D2A78002AC3D0564BDA
:10179C001B78002BBFD1504B1B78002BBBD094F87F
:1017AC004B30934253D0042A84F84B205AD901234E
:1017BC0084F84930AFE7531E2E2B0FD9002AE2D103
:1017CC0094F84A304949012B08BF84F84820454A0F
:1017DC0000230B80137084F849309CE7434B414D38
:1017EC000021D2B219802A70D1E703F0AFFAC0B150
:1017FC0094F844300133DBB2642B84F8443010D9B4
:10180C00012389F80030D4E901E30193E3690093E3
:10181C00D4E90370D4E9051AD4E9088BD4E90A2C6D
:10182C0082E7D4E901E30193E3690093D4E90370FF
:10183C00D4E9051AD4E9088BD4E90A2C5FE72B48C4
:10184C002849028000230B7084F8493063E7042A8E
:10185C0008D994F849300133DBB2052B84F84930B0
:10186C007FF659AF0023013A84F84930142A0FD877
:10187C00DFE802F00B7E7A76720E6B64605C0E54BD
:10188C0046200E0E0E0E0E191400194B01221A7062
:10189C00184A2978117000232B703CE7164A174B15
:1018AC0012781A70F4E7144B144A1B78C3F1010335
:1018BC001370EDE7002240F6FF6384F84C20A4F887
:1018CC004E30E5E75807002040070020D8030020E1
:1018DC00D0030020D2060020A0060020E106002044
:1018EC00CC060020FA0600208B0600208C06002077
:1018FC00A6060020FB0600208005002037000020F3
:10190C0094F84A3001214FF460628B4284F84C10F9
:10191C00A4F84E20BCD184F84830B9E700F0E8FABE
:10192C00154B164A1B7801331370B1E7144B012287
:10193C001A70ADE7124B00221A70A9E70E49114B31
:10194C000120002208701A70A2E70B490D4B0020F1
:10195C00012208701A709BE7084B05221A7097E752
:10196C00064B04221A7093E7044B03221A708FE77C
:10197C00024B02221A708BE780050020A60600207D
:10198C00810500203700002030B52F4DB5F84E30C2
:10199C00002B3FD000221846A5F84E201A0A82EAE6
:1019AC0013125340DB4303F00F0343EA0013274A9F
:1019BC00AB6503F00F001913145C515C244844EA26
:1019CC00C134C3F30321C3F30313515CD35C214A29
:1019DC0092F800E044EA812444EA431405EB8E03B8
:1019EC00802200EB8E00EC655A66043013214FF018
:1019FC00010C0CFA01F32340CB4083EAD2120139DB
:101A0C00D2014B1C40F8042FF3D105EB8E050023BB
:101A1C002B6630BD104B1B785BB103460F2240FA8E
:101A2C0002F1012908D0013A082AF8D100226A658E
:101A3C00B4E74FF6FF70F0E7083A40FA02F343EAD6
:101A4C0042206A6583B2A9E7D8030020145B000822
:101A5C0038040020D30300208B06002030B5039CF3
:101A6C0084460AE08C4513DD9C420FD0B1EB6E0F1F
:101A7C000DD0AC450EDC04462A4602EB010EE018F4
:101A8C0094454FEA6E054FEA6000EBDB204630BD13
:101A9C00184630BD691C0346EFE700BF0346401AE9
:101AAC0048BFC81A704700BF034A00235362536AE9
:101ABC008342FCD3704700BF004801400B4A42F6FA
:101ACC00E063002151629362536900EB800043F0A4
:101ADC00010353614000536A8342FCD37823936221
:101AEC00536943F001035361704700BF0048014044
:101AFC00026803FB03F303EB430C22EA0C0201FB29
:101B0C0003F313430360704703FB03F310B404683F
:101B1C0003FB01F103FB02F203EB430324EA03048E
:101B2C000C430460C16810BC21EA03031343C36077
:101B3C00704700BFBFF34F8F0549064BCA6802F4CC
:101B4C00E0621343CB60BFF34F8F00BFFDE700BFD4
:101B5C0000ED00E00400FA0503468A1A0069996852
:101B6C0010B51C6A1A6001FB0201A1421961C4BFC5
:101B7C0021461C6164428C429869C4BF1C61214699
:101B8C00DC68101A04FB00F05C68586104FB02006E
:101B9C005C6A0844A042C3E90620C4BFDC6120464D
:101BAC0064428442C4BFDC612046FFF7F7FB10BDE2
:101BBC0030B5C44CC44DB0222968204683B003F024
:101BCC0033F8627CA37CE17C207EA2F10102B2FAA4
:101BDC0082F2520984F8B020627DA3F10103B3FABA
:101BEC0083F3A2F101025B09B2FA82F201294FEAF6
:101BFC00521284F8B130E37D08BF84F8B2106A71D8
:101C0C00217DA27D042B28BF0223A1F10101A2F1A9
:101C1C000102B1FA81F1B2FA82F2EB71A0F1080380
:101C2C0049095209282B2971AA714BD8A0F1180324
:101C3C00182B40F20B81A0F10C030B2B40F21781F7
:101C4C00A0F10803032B40F2238128899F4BD86213
:101C5C00637EA3F13202642A3ED89D4AAB81A2FB7B
:101C6C0003235B0803F10A02EB812A82A37E217F06
:101C7C00627FE07E287503EB8303A1F10101A2F1E1
:101C8C000102DB00B1FA81F1B2FA82F21433490994
:101C9C00520902206B8284F8B31084F8B42001F04E
:101CAC00A5FF6378EBB9688A4FF4FA73009340F69A
:101CBC00B8324FF47A734FF49671FFF7CFFE688603
:101CCC0003B030BD814A41F288336B81D362637EAD
:101CDC00A3F13202642AC0D996225523AA81EB8142
:101CEC00C4E7A07F0B2888BF052001F07FFF94F884
:101CFC00202094F82130E17F94F82300287702F219
:101D0C007712520003F26B335B00EA8294F82220C4
:101D1C002B8394F8263002F25E526A83A3F10103FE
:101D2C0094F82520B3FA83F3FA325B09EA8384F83A
:101D3C00B73094F82720002384F8B93094F8283071
:101D4C00012A08BF84F8B8205A1F142AA1F10101F6
:101D5C0098BF85F82030B1FA81F194F829304909FF
:101D6C005A1E84F8B51094F82410092A94F82A20E5
:101D7C0098BF85F82130A1F10101B1FA81F1531E10
:101D8C004909082B84F8B6101AD8C2EB4213C2EBDF
:101D9C0083035B0085F822202E3BAA8C4B48617E86
:101DAC00DBB21A44AA84EA8C85F823301A44EA84FC
:101DBC00426C1A4342645A1803EB5103AA81EB811B
:101DCC0094F82B30A3F14602462A98BF85F82830A8
:101DDC0094F82C305A1E622A04D85B0001226B85C1
:101DEC0084F8BA2094F82D305A1E092A98BF85F829
:101DFC002C3094F82E30092B06D8042B0CD8DFE8A5
:101E0C0003F0036F5C0B5300324A0023012184F86A
:101E1C00BB3084F8BC301170688A2F4A2C7DB0F529
:101E2C00967F3CBF002385F82D30294BA2FB001276
:101E3C00A3FB00135209DB082021B1FBF4F1B2FB28
:101E4C00F1F2B3FBF1F3EA852B862DE740F6C413D0
:101E5C000093302241F288331821FFF7FFFD03462F
:101E6C00207E2B81A0F10C030B2B3FF6E9AE41F247
:101E7C0088330093182242F210730C21FFF7EEFD09
:101E8C000346207E2B81A0F10803032B3FF6DDAE29
:101E9C0041F64C530093102243F698230721FFF789
:101EAC00DDFD80B22881D1E60C490A4A01230B7072
:101EBC000021117084F8BB30AEE7012384F8BC30EC
:101ECC00AAE700BFD004002000000020002C014035
:101EDC00ABAAAAAA200400201F85EB5122040020E3
:101EEC00024A012384F8BB30137095E720040020CC
:101EFC0000B52148214B90F8B0C090F8B12090F873
:101F0C00B21093F834E080F801E0ACF1010CA2F1CE
:101F1C000102A1F10101BCFA8CFCB2FA82F2B1FA15
:101F2C0081F14FEA5C1C5209490980F811C0827496
:101F3C00C1741A7993F805C0997993F807E080F881
:101F4C0017E0A2F10102ACF1010CA1F10101B2FA0E
:101F5C0082F2BCFA8CFCB1FA81F1520949094FEAC0
:101F6C005C1C0275817580F815C01A685DF804EB6D
:101F7C00B02102F0FDBD00BFD00400200000002005
:101F8C0000B5124A92F8C410B2F89031D2F8C000E1
:101F9C0002EB410C0131C9B26329BCF8C8E0ACF8C2
:101FAC00C830184484BF002382F8C430084B98BF53
:101FBC0082F8C410A0EB0E00C2F8C000A3FB0030E6
:101FCC00C0F34F10A2F892015DF804FBD00400207E
:101FDC001F85EB5108B502F09FFD0E4B93F8352091
:101FEC003AB140B90C4A92F89431013382F89431E9
:101FFC0008BD0028F6D1084A93F8361092F89531AE
:10200C000133DBB2994282F89531F1D2002382F888
:10201C00943108BD00000020D004002038B5284CB5
:10202C0094F83730012B3BD094F83830254D5A1E9C
:10203C0012F0FF0222D084F8382003F0010384F858
:10204C00353072B695F897312BB362B602F080FD3D
:10205C00D5F89821E16B40F2A4639A4284BF012326
:10206C0084F8393094F8383005EB4303002285F8B6
:10207C00942185F89C21A3F89E1138BD01230622DA
:10208C0084F8382085F8963184F8353072B695F896
:10209C009731002BD9D194F8380003F07BF9D4E7B1
:1020AC0094F83820074D0132D2B2062A99BF84F831
:1020BC00382002F0010384F8383085F89631BEE7F9
:1020CC0000000020D00400201B4AD36823F0010339
:1020DC0010B5D360FFF7A2FF1849194CCB6BB4F8BD
:1020EC00AC0194F8B82003EB430303449808C8638D
:1020FC00C2B991F84020580912FB00F292B291F843
:10210C003910A4F8B021C2EBD303A4F8B23181B1D9
:10211C00D4F8B43142F20F7293429CBF0133C4F82D
:10212C00B43110BD94F8AE2100FB02F2C2F38F1251
:10213C00E5E702F005FDEBE700440140000000205C
:10214C00D004002070B5254ED6F898317D2B15D9CA
:10215C00234B5B6A7C2B09D8B6F8B831B3F5167FE4
:10216C0004D2D6F8B431B3F5FA7F19D396F8BA3154
:10217C000133DBB2642B86F8BA3128D8194D95F8A7
:10218C004130002423B90CE095F84130A34208DD1E
:10219C0002F0C2FC95F83530834204F10104F3D10E
:1021AC0070BD72B602F0C0FC0D48B6F8B211426AAE
:1021BC000D4BA6F8AC210131002242625A62D96261
:1021CC001A61DA6842F00102DA6062B670BD02F0A0
:1021DC00ABFC0023C6F8B43170BD00BFD0040020A6
:1021EC0000100040000000200044014070B5CE4CAF
:1021FC0094F8B13082B0002B00F0C88094F8BB305A
:10220C00002B00F01A81C94DB4F8BC21B2F5836FD4
:10221C0080F0D081A2F130039BB2B3F57A7F11D25A
:10222C0094F8B01095F83760C1F10100864200F0C7
:10223C00898395F842105B009BB2C1F12F010B44CE
:10224C00A4F8BE312F2A00F2A680002394F8C321F3
:10225C00A4F8BE3184F8C23195F843309A4200F2AA
:10226C00A18094F8B260002E00F0BF80B4F8BE01DB
:10227C001D2800F285810023A4F8C43195F8203084
:10228C0003EB8303B0EB830F4FEA830180F284816D
:10229C0094F8C131002B40F0448194F8B2102E22F6
:1022AC00502313FB0123B4F8C421934280F28D8098
:1022BC0094F8D031002B00F02F8194F8BB31002B17
:1022CC0000F0598394F8B230002B00F0A082EB8917
:1022DC00B4F8C4014FF4FA620092283340F2FF7252
:1022EC008921FFF7BBFBA4F8D40194F8B73094F81C
:1022FC00B210002B40F00781B4F8C46184F8973118
:10230C0050222E2312FB0133B3425EDA2E2E40F202
:10231C00128294F8B4201E23D340D4F8B4219342F3
:10232C0040F20982B4F8D431AA8993423CBFA4F894
:10233C00D4211346EA8C9A423CBFA4F8D42113460C
:10234C00B5F876209A4294F8BA3038BFA4F8D42164
:10235C003BB1B5F97830B4F8D4219A42C8BFA4F88F
:10236C00D431D4F8E05100212846FFF7D7F80028E3
:10237C0000F0D7802F2E40F2D4802846FFF7FEF8CD
:10238C00B4F8D4311844A4F8D401CAE0B4F8BC3180
:10239C00664DA4F8BE3194F8C32195F843309A42A7
:1023AC007FF65FAFAB79002B3FF45BAF02F0B4FF6D
:1023BC0002F0BAFB00226623A4F8C42184F8C331CE
:1023CC0094F8C131002B40F0AC8094F8D631002B3E
:1023DC0000F0B780013B042B00F2B080DFE813F073
:1023EC00AC00380235023202AC0094F8C631002B36
:1023FC0000F0DB8094F8C731002B40F05981D4F801
:10240C00CC614B493046FFF789F8002840F0EF814A
:10241C003046FFF7B3F8A4F8C40146493046FFF73D
:10242C005FF800283FF434AF94F8C1313022A4F89F
:10243C00C421002B3FF43CAF73E094F8B7203B4D24
:10244C00B4F8BC01002A00F0EF802E7F760006F570
:10245C007A7188421DDD94F8B06095F83720B2424D
:10246C0000F0188294F89731002B40F01B81002368
:10247C0084F8C03140F2FF7300934FF4FA622F23BB
:10248C00FFF7ECFA2E7F0346B4F8BC01A4F8BE317A
:10249C007600C6F57A72824222DD94F8B03095F857
:1024AC003760C3F101018E4200F0228294F897311B
:1024BC00002B40F0F7802F230021009340F2FF7394
:1024CC0084F8C011FFF7CAFA2E7F03467600B4F8E1
:1024DC00BC01A4F8BE31C6F57A739842C0F2E28012
:1024EC0006F57A76B04200F3DD8094F8972100234C
:1024FC00A4F8BE31002A00F0D580012284F897316F
:10250C0084F8C021CEE02E22502313FB0123B4F813
:10251C00C4219342BFF659AF94F89761002E00F096
:10252C00058102B070BD00BFD00400200000002067
:10253C0000E0FF440000404201F096FC002384F8C8
:10254C00D6312B79002B4BD194F8BB21A4F8D43184
:10255C00002A40F0F58094F8B330C4F8B42101217E
:10256C0085F83910002B40F0E98094F89731002B56
:10257C0000F0348294F8B730002B40F0EA80D0E7BA
:10258C001E283FF47BAE95F8202002EB82029200CD
:10259C0090421146C0F2BE8040F2FF720092A0231E
:1025AC00FFF75CFAA4F8C40172E6B4F8BE31A4F8E3
:1025BC00C4316DE694F8B03095F83710994200F0BC
:1025CC00A88195F84200A2F58361490089B2C0F157
:1025DC002F00A2F1300301449BB2A4F8BE111CE6FB
:1025EC0094F8BB31002B40F0CB8094F8B320C4F8A6
:1025FC00B431012685F8396084F89531002A00F051
:10260C00BD8094F8B200002840F0BC8095F82130D1
:10261C0003F2DE335B00A4F8D83102F0DFFD94F84E
:10262C00B20084F89761AFE02A7F520002F57A710C
:10263C00884240F3E18094F8B03095F837209A4204
:10264C0000F0098140F2FF7300934FF4FA622F23DC
:10265C00FFF704FA2B7F02465B00B4F8BC01A4F828
:10266C00BE21C3F57A72824240F3E68094F8B03012
:10267C0095F83760C3F101018E4200F01D812F23C4
:10268C000093002140F2FF73FFF7E8F92B7F02461D
:10269C005B00B4F8BC01A4F8BE21C3F57A72904279
:1026AC0080F2CA8094F8BB30002B3FF474AEABE5DB
:1026BC00D5E91132B4F8BE0100922F2140F2FF721D
:1026CC00FFF7CCF9B4F8BE21CA4B93FBF0F3287D8D
:1026DC002E2A4FEA500093FBF0F3A4F8C83140F2D5
:1026EC00A480D4F8CC61C4493046FEF717FF00280B
:1026FC0040F05B813046FEF741FFA4F8C401BF49AE
:10270C003046FEF7EDFE00283FF4C2AD3023A4F8AE
:10271C00C431BDE5A02300931E212F23FFF79EF9A2
:10272C000346A4F8C431B4F8BE01A7E5B4F8C461FB
:10273C002E2E3FF6EEADB4F8D43101E602F04CFF8C
:10274C0094F8B730002B3FF4E7AE94F89731002B98
:10275C00ECD0B4F8BC114FF47A70FFF79FF92A89CA
:10276C0000F57A739BB2013A9342A4F8D831C0F2C7
:10277C003E8102F031FF94F89761CFE602F0CCFD78
:10278C0094F8B20094F8976195F83830013BC3EB9C
:10279C000312B5F8743003EB82031AB2B2F5B47FAE
:1027AC009BB2A6BFA3F5B4739BB2A4F8DA2103F1D4
:1027BC00770212B2A8BFA4F8DA31B2F5B47FA8BF81
:1027CC00A3F1F102A4F8DC2103F1EF0212B2B2F58D
:1027DC00B47FA6BF793BA4F8DE31A4F8DE21002338
:1027EC00012808BF84F8C101A4F8D43196E640F260
:1027FC00FF73A4F8C43110E6C2F57A729042FFF66A
:10280C0035AF0023A4F8BE3184F8C2314AE74FF447
:10281C00FA62EB89B4F8C40100922F2140F2FF72E6
:10282C00FFF71CF9A4F8D4015FE50023A4F8C461F8
:10283C00EE64C4F8CC31C3E503F57A738342FFF63A
:10284C0031AFDEE701F0A2FA78E601F06DFB75E638
:10285C0001F03AFB72E6688EEA6B904280F0AA8037
:10286C00B4F8B821C72A00F2A580C3F101030026F1
:10287C00012285F83730C4F8B46185F8392002F0AC
:10288C0053F9297FB4F8BC0184F8C261490001F501
:10289C007A71D7E694F8C061A4F8BE314FF0010C00
:1028AC0084F897C1002E3FF4FDAEACEB020284F825
:1028BC00973185F83720DAE5688EE96B884280F02D
:1028CC008380B4F8B811C7297ED80122002685F878
:1028DC003920C4F8B46185F8373002F025F92A7F25
:1028EC00B4F8BC0184F8C2615200C2F57A72C6E633
:1028FC0094F8C06100214FF0010CA4F8BE1184F8CB
:10290C0097C1002E3FF4CEAE85F8373084F897117E
:10291C00D1E5698EEA6B914240D2B4F8B821C72A4E
:10292C003CD80122C3F10103002685F8392085F833
:10293C003730C4F8B46102F0F7F8B4F8BC2184F86D
:10294C00C2613EE66A8EEB6B9A4220D2B4F8B83183
:10295C00C72B1CD80123002685F83930C4F8B46184
:10296C0085F8371002F0E0F8B4F8BC2184F8C261A5
:10297C00A2F130035DE402F0CFFC95F8393083B35B
:10298C00AB89A4F8D231012284F8BB219AE494F8E3
:10299C00C131002BDED1A4F8BC3156E494F8C1212E
:1029AC00002ABED1A4F8BC214FE440F2FF73A4F876
:1029BC00C431A4E694F8C121002A7FF456AF4FF439
:1029CC007A70A4F8BC013DE694F8C11100297FF49B
:1029DC007CAF4FF47A70A4F8BC0150E602F09CFC7A
:1029EC00AEE694F8BB315BB102F0AAF8C8E702F08E
:1029FC00F5FB91E50087930300E0FF4400004042A3
:102A0C00FFF70CFB054B42F2107141F28832E9637F
:102A1C005A62012384F8BB31E6E700BF0010004086
:102A2C0010B50E4C94F8E431012B0DD0022B03D0D1
:102A3C00BDE81040FFF7DABBB4F8E801FEF7A4FFDD
:102A4C00002384F8E43110BDFEF7F2FD002384F876
:102A5C00E431BDE81040FFF7C9BB00BFD004002033
:102A6C00F8B54F4E4F4F96F83710002977D1B7F87D
:102A7C00DA3101331AB2B7F8DC310133B2F5B47F75
:102A8C001BB2B2BFA7F8DA21A7F8DA110A46B3F5E0
:102A9C00B47FA8BF0023A7F8DC31B7F8DE310133CF
:102AAC001BB2B3F5B47F77DAA7F8DE3106EB42023E
:102ABC00B6F84C13B2F97C3030893B4D3B4C0B448F
:102ACC0000FB03F385FB0312D81796F82C30C0EBF0
:102ADC00E21003FB00F0C31784FB0020C3EBA00043
:102AEC0080B202F0DDFAB7F9DC31B6F84C0306EB34
:102AFC004303B3F97C2096F82C300244308900FB58
:102B0C0002F285FB0201D017C0EBE11003FB00F0D1
:102B1C0084FB0023C017C0EBA30080B202F0C6FAFE
:102B2C00B7F9DE21B6F84C0306EB4202B2F97C3061
:102B3C0096F82C200344308900FB03F385FB031526
:102B4C00D817C0EBE51002FB00F084FB0034C01773
:102B5C00C0EBA40080B2BDE8F84002F0ADBAB7F803
:102B6C00DA21B7F8DC31013A12B2013B1BB2002A70
:102B7C00B8BF40F26712002BB8BF40F26713A7F83A
:102B8C00DC31B7F8DE31A7F8DA21013B1BB2002BA0
:102B9C00B8BF40F2671387E70023A7F8DE3185E75B
:102BAC0000000020D0040020D34D621067666666DA
:102BBC0038B5234D2349EA6B4B6A234C02EB420296
:102BCC0012FA83F2A4F8AC3100234B6253095B0078
:102BDC009BB2A4F8B031C3EBD2039BB29208D4F8E9
:102BEC00B401EA63A4F8B23101E0042802D94A6ABC
:102BFC009A42FAD3FFF712FAD4F8B43194F8B4002D
:102C0C0094F8B7100022013384F8942184F89521AC
:102C1C0050EA0102C4F8B43105D1EA6B40F2135307
:102C2C009A4206D938BD132BFCD9EB6BB3F5FA6F6E
:102C3C00F8D8002385F83930BDE8384001F080BF62
:102C4C000000002000100040D0040020F8B5BB4C60
:102C5C00B4F8EE11B4F8EC01B4F8F02194F8D031DA
:102C6C00B4F8D451A4F8B8510131A4F8EE1194F889
:102C7C00F211013001320B43A4F8EC01A4F8F0215D
:102C8C003ED194F8F321002A3AD0B4F8BE51002D6D
:102C9C0040F08481B4F8F43101339BB244F62061E6
:102CAC008B42A4F8F4312BD9B4F8F6311E2B40F238
:102CBC00AA8194F8B630012184F8D011002B00F0D1
:102CCC00A781B4F8F8119E484B08A0FB0323DB093D
:102CDC00B1F5B97F84F8F2310DD39A4F4AF6AA2692
:102CEC0001F08CF86420FEF7E9FE94F8F2313E60B6
:102CFC000135AB42F4DC94F8BC300BB984F8B73036
:102D0C0094F8B53073B1904AB4F8FA3192F84E2376
:102D1C0001339BB202EB8202B3EB820FA4F8FA31BF
:102D2C0000F39F8094F8C131002B38D1864D95F873
:102D3C00393023B194F8BB31002B40F01581B4F835
:102D4C00F031142B31D895F8A833002B40F090803B
:102D5C00B4F8B81194F8D03123B194F8BB31002BEE
:102D6C0040F0DA8094F897316889002B00F0A78046
:102D7C002B89B4F8D8215D1C744B00FB02F283FB49
:102D8C00023CD317A3EBEC132B449BB2A4F80032F8
:102D9C006F4AA4F8D211C2E90D33D062D363B4F8F0
:102DAC0002320133A4F80232F8BD94F8BA30002292
:102DBC00A4F8F02123B194F8BB31002B40F0FC8037
:102DCC0094F8B430002B40F0848094F8C631002B7A
:102DDC00B9D094F8BB31002BB5D0B4F8C821D4F8D5
:102DEC00E8115C485C4FFEF7B7FE5C49FEF768F9EA
:102DFC00D4F8CC11FEF71EFA39460646FEF78EFBC8
:102E0C0038B9002739463046FEF76AFB002800F037
:102E1C000581C4F8CC71D4F8B431632B93D895F8F0
:102E2C00A8330022EA65002B92D0B4F8D2310121EC
:102E3C000A4685F8A9138C46B4F8B811C81A904202
:102E4C002EDC581A904240F3B080A3EB0C0399B2DD
:102E5C00EA79A4F8B811002385F8AA3385F8402044
:102E6C0078E70122002384F8FC21A4F8FA3159E711
:102E7C00D4F8B431952BB4F8D231D8D9952BD6D906
:102E8C00D4F89821B2F5FA7F8CBF042110210A46A0
:102E9C0085F8A9138C46B4F8B811C81A9042D0DD45
:102EAC00EA6B634499B2B2F5FA7FA4F8B81178D9F9
:102EBC00EB7985F84030012285F8AA234AE7234AAA
:102ECC0000FB01F3A2FB0323C3F3CF13A4F80032DE
:102EDC005EE794F8BB31002B3FF435AFB5F87C239B
:102EEC00E96B1F481F4FFEF737FE1C49FEF7E8F849
:102EFC00D4F8E011FEF79EF939460646FEF70EFBB4
:102F0C0038B9002739463046FEF7F4FA002800F0AD
:102F1C008280C4F8E07158E7B4F8C4312F2B7FF6E7
:102F2C0021AF6889094A00FB01F3A2FB0323DB09EB
:102F3C0001339BB2A4F800322AE700BFD004002072
:102F4C00B9D31FB10030004000000020D34D6210F7
:102F5C00002C01404C00002000E0FF4417B7D13892
:102F6C00800300200000164301F0DEFDFFF732F86D
:102F7C0094F89C31002B7FF4E2AE95F8353094F840
:102F8C009421002B39D095F84F339A427FF6D7AE67
:102F9C00012384F89C31FFF70BFED0E6A4F8F43142
:102FAC00AEE6002385F8AA33D4E6EA7985F840200A
:102FBC00002385F8AA33CDE66B8DB4F9FE111948C0
:102FCC00642203FB02F2FEF7C7FD1749FEF778F8FF
:102FDC00FEF7AEFAB5F87830E9891B1A1BB21A461F
:102FEC008B42A5F878306B89BCBF0AB2A5F8782063
:102FFC009342B8BFA5F87830E2E695F850339A4280
:10300C007FF69DAEC4E784F8F351A4F8F45177E64B
:10301C0000F0F4FE6FE6C4F8E061D6E6C4F8CC61CB
:10302C00F9E600BF5403002017B7D1382DE9F04F53
:10303C0085B001F099FE01F0D3FF02F053F8FEF7D2
:10304C00B7FD4FF00063B44DD3F8E03FB34CF82B11
:10305C0004BFB34B2B60E378022B02D12379102BE6
:10306C000AD002221023AF49E270AF4823710C2220
:10307C0002F02AFDFEF73CFF94F8B0302A7929893A
:10308C006981013B18BF012385F837300AB984F8F0
:10309C00B22094F8B730B3B1E889298AAA89002301
:1030AC0001264FF47A77323032313232AF84E881F4
:1030BC00298284F8B16085F82D6084F8B2306B7188
:1030CC002B71AB71AA8100F01FFE0023A4F8F6311E
:1030DC0001F0B0FE954B4AF6AA221A6001F0B2FD3F
:1030EC0094F8C73113B1012384F8C63101F034FED2
:1030FC008E4FDFF83CB2DFF83C92DFF83C824AF6A8
:10310C00AA26B4F8A211B4F8A031B4F8A421B4F8EA
:10311C00A6010B441344B4F8A811B4F8AA213E60DC
:10312C0003440B44134404336A795B10C4F8E8314C
:10313C00002A40F08481B4F8023242F210729342B9
:10314C0009D994F8D011002940F0B08249F64042D8
:10315C00934200F2C482B4F8EC2144F620639A4204
:10316C001BD9B4F9FEA15046FEF718F95946FDF7E4
:10317C00A7FFD4F80412FEF75DF899F80030C4F8F4
:10318C000402022B00F04982032B00F03782012B42
:10319C0000F02A820023A4F8EC31D4F8B421B2F563
:1031AC007A7F40F206810021B4F8BE3184F8C31155
:1031BC00C72B40F2C08194F8B21011B19F2B40F292
:1031CC00058194F80912002900F09F80B3F5C87F9F
:1031DC00C0F00381D4F8E83194F8960188FB03C160
:1031EC00A1EBE371C4F8981110B10A2A00F2B48172
:1031FC0094F81132002B7ED0EB6B322B7BD94F4BDA
:10320C001022002183F80B1383F8152383F80C2369
:10321C0094F812320133DBB2C82B84F8123200F26C
:10322C002B8194F8C1314FF0000A84F8BAA1002B1D
:10323C0040F08C8094F8BB31414AD4F8E8114148F5
:10324C0092FBF1F213FB02F39BB2A0FB032095F867
:10325C002D20A4F82232C008A4F82402002A40F041
:10326C00B8814FF4FA63A5F8763094F8080295F813
:10327C002810884200F2A081D4F8B431632B00F2FC
:10328C00E880EB6BB3F5FA7F40F2E3800C2385F812
:10329C004130172300934FF4FA620D23B4F8B801B0
:1032AC006421FEF7DBFB284A526A84F8AE014AF629
:1032BC00C8739A427FF625AF94F8BBA1BAF1010FFF
:1032CC007FF41FAF94F8C331013384F8C33101F09C
:1032DC002BFCB4F8C43185F839A02F2B05D800236A
:1032EC0084F8BB3141F28833EB630023C4F8B4316A
:1032FC00FFF75EFC05E7114B0022102183F80B133E
:10330C0083F8152383F80C2382E7952B94BF642351
:10331C000A2385F843305DE700000020D00400202C
:10332C0000F80008345B0008D50400200030004091
:10333C00610B363B240400205655555500E100E046
:10334C00C0270900CDCCCCCC00100040B4F8C4315F
:10335C00302B4AD994F8D021002A46D0313B572B38
:10336C0000F2698194F82632002B40F0D281FFF7ED
:10337C0077FB95F814E0B4F8C4017822302141F6BB
:10338C00583340F22A3CB3FBFEF3BCFBFEFCCDF8F9
:10339C0000C0FEF763FBA5F8B00380B2FEF784FB18
:1033AC00B5F8B0234FF41673B3FBF2F3A4F8223242
:1033BC00A7E6B4F8BE31A3B9642A84F8C33100F28D
:1033CC00BA8094F8B21000293FF4FBAE002184F8C7
:1033DC00C31194F80912002997D0002384F8C33143
:1033EC00F8E6642A7FF6E7AEE2E694F8B3304FF0E5
:1033FC00010A84F826A2002B00F0A7802B8995F8EF
:10340C002110A3F1130202EB4102698992B2A4F8D4
:10341C00B82101FB02F2B2FBF3F253449B1AA4F85D
:10342C00003201F0DBFEB4F80022CB4B84F897A1FC
:10343C00C3E90D22DA630023A4F8223261E62B895A
:10344C000093E86B5B08C8226021FEF707FB6881DC
:10345C0071E60C230093D4F8980103234FF4FA720D
:10346C006421FEF7FBFAEB6B85F84100312B9CBF16
:10347C00022385F841300CE701F0C2F90121B7486D
:10348C0000F0D8FEB4F8140201F05AFAB4F818227D
:10349C00B34BA4F8160240F6E44A0AFB02F2A3FB73
:1034AC000213D21A03EB5203B5F8AC23AD4984F8DE
:1034BC000802DB0A02FB03F3B4F8F821A1FB0313A7
:1034CC00C2EBC20202EB5313DB10A4F8F831FEF787
:1034DC0057FDA54BC4F81C020AFB00FAA3FB0A3AE1
:1034EC004AF30F2ABAF1000FBCBF0023A4F8FE3137
:1034FC0094F8B630A8BFA4F8FEA11BB394F8F2312F
:10350C00E98BB4F8F82101FB03F39A4217DAB4F80B
:10351C00202294F8C1319548013244F6206192B2D0
:10352C0000FB03118A42A4F8202200F3038100223D
:10353C0084F8122277E6002184F8C3113BE60023BD
:10354C00A4F8203294F8C131F1E7834AC2E90D3373
:10355C00D36301F0E1FE6EE7D4F80C02FEF79EFA9D
:10356C00D4F89831B0EB530F1BD9B3F5FA6F18D2CE
:10357C0094F81022013284F8102294F8B120002122
:10358C00C4F8B4119AB9B4F8C4212F2A0FD9002267
:10359C0084F8BB21AA895208A4F8D221012285F80B
:1035AC003920002284F89621C4F80C3220E6EA6B0C
:1035BC00B2F57A7FEED9EAE7B5F8AE330122009284
:1035CC005B0801F10A020A39FEF748FAA5F8760001
:1035DC0052E6B5F8AE330093AB8C2A8EE98DFEF72C
:1035EC003DFAA5F8760040E694F80832604A43F4B8
:1035FC0000731380022389F80030CBE5B4F8F8315E
:10360C0058495B4AA1FB0313C3F3C70343F480631C
:10361C001380012389F80030BCE5524A5FFA8AF323
:10362C00A2FB03231B09524A43F4C06313800323F8
:10363C0089F80030AEE5012384F82632FFF710FA42
:10364C00B4F8C431C82B04D95023A4F8DAA1A5F8D6
:10365C00B033B5F8B003FEF727FAB4F9DA31002B22
:10366C007FF44FAD434984F8C131012284F897317E
:10367C0042F22833EB63C4F89831C4F80C3285F865
:10368C0039204B6294F8B43084F8BB2195F8B223FE
:10369C0085F838201422C4F8B42113B12B8AA4F86D
:1036AC00D231FEF7BBFC01F00DFD2AE501F034FE32
:1036BC00294B0025C3E90D55DD6384F8D051A4F8DE
:1036CC00C45184F8F351A4F8F65101F003FD2A48D3
:1036DC004FF48072294602F0EFF9FEF72BFA0391B2
:1036EC0001F01AFE03991C4B84F8D011C3E90D119B
:1036FC00D963A4F8C41184F8F311A4F8F61103915A
:10370C0001F0E8FC03991C484FF4807202F0D4F9E4
:10371C00E3E71A4AD36823F00103D36001F004FAFB
:10372C000D4BC3E90DAAC3F83CA001F093FF84F83C
:10373C0026A21CE64FF0000AA4F8C4A101F0ECFD8F
:10374C0001F0F2F994F8C13184F8BBA1A4F8F6A108
:10375C0084F8D0A1EBE600BF002C0140002401400E
:10376C00010110001F85EB51FF04EC4F7CFCFFFFA7
:10377C00260400200010004058070020004401409F
:10378C00F0B5604CD4E90002101A6FF4487240F2A4
:10379C00765382189A4283B02AD85B4E5B4D002335
:1037AC0033802B78002B3CD06B780146ABB9AB78CF
:1037BC00002B00F08E80A888554F01333988AB70F0
:1037CC00FEF76CF9322866D900223B882A706A7899
:1037DC00AB804AB1D4E90031C91A40F2E1439942B5
:1037EC004DD9AB794B2B77D80023A868338004E0F4
:1037FC004649484B886800221A804749474A0B883B
:10380C001268A0EB030C944503DD13440B8003B04A
:10381C00F0BD1C1AA242BABF9B1A0B80088003B0E1
:10382C00F0BD3F4A147874B13E4A128890421AD8BF
:10383C003D494FF47A7409880094FEF70FF9A8609B
:10384C0000233380D9E7324B1A88374B198840F262
:10385C00FF7300932F23FEF701F93028CEBFA86029
:10386C00AC602046ECE72A4B511C1A884FF4FA63E3
:10387C00009340F2E933FEF7F1F8A860E0E72A483C
:10388C00AB790288C2EBC20201331144DBB2C90826
:10389C00AB710180A6E73B886268C3EBC301236868
:1038AC00D31AAA780B44C3F3CF03322A3B808ED9A8
:1038BC00193B9BB23B80A3F2D6631C4A03EBD37338
:1038CC005B1082F8213001236B7000F0CDFA3B883D
:1038DC007DE780B2A8806FE7134A14491388193327
:1038EC009BB21380A3F2EE2303EBD3735B10002483
:1038FC0081F820302C70FEF7FBFAAC7100F0E4FA82
:10390C0072E700BF58070020D206002028070020CD
:10391C0018000020C60600208C060020C8030020DA
:10392C00810500201A00002016000020D004002081
:10393C001A4A9388591E022930B413D8184BD968E7
:10394C003B290DD80121174D1748197400232B70F2
:10395C00164C174B21700E25057020209071197094
:10396C0030BC7047043B042BFAD80D4BD968632943
:10397C00F6D80D480D4D0B4C4FF0030C83F810C0CE
:10398C000B4B4FF0070C012180F800C02020297050
:10399C0021709071197030BC704700BFC8030020B3
:1039AC0028070020D2030020D30300208B05002021
:1039BC00C3060020F8B5284B284F1968002544F69B
:1039CC00206E1A46A7F804E003F17804AC462E46A4
:1039DC0052F8043F8B42A3EB0100194606D0704508
:1039EC003CBF1FFA80FE012684440125A242EFD180
:1039FC000EB1A7F804E00DB14FEA5C15184C194A4A
:103A0C002378D560012B23D0174D2B78012B15D0A3
:103A1C002278134311D1FFF78BFFBB88C93B44F6C7
:103A2C0056529BB2934208D801231049104A2B706E
:103A3C00772008700221B9711370F8BDBA88C93AA1
:103A4C0044F6565192B28A42F7D80849084AEFE731
:103A5C00FFF76EFFD8E700BF58070020C80300200F
:103A6C008B050020280700208C050020D2030020A5
:103A7C00C306002070B5504C237813B14F4B1B7804
:103A8C0033B94F4B1B78002B4FD0012B0AD070BD94
:103A9C004C4B1B78002B35D001F0D4F84A4B02224A
:103AAC001A7070BD454B1B78002B31D1474D2B78CC
:103ABC00012B6FD0464B1B78012B62D02378002B47
:103ACC00E5D12B78002B3AD04249434B4A7C072A4C
:103ADC0036D81888052833D9404C4D69E06F2468D6
:103AEC000132D2B22844001B082A4A74486127D1FB
:103AFC00C0F3CF023A4CC0F3CF101518101A258121
:103B0C0008831DE001F0D8F82F4B01221A7070BD0C
:103B1C002C4B1B787BB1334B1888FDF735FFFDF729
:103B2C0087FDBDE8704001F08DB8FFF743FFBDE89D
:103B3C00704001F087B8BDE8704001F0BDB8264B6D
:103B4C00294C208830B9234A127842BB1A8801329A
:103B5C001A8070BD40F2DC52002690421E8096D92D
:103B6C001C4D698BFDF79AFF32281ED82B7F013331
:103B7C00DBB2322B2B7701D96E7896B123886B830D
:103B8C0070BD01F0E3F8164B88B103229A7101F075
:103B9C0059F893E7FDF74CFD01F054F88AE71880CB
:103BAC0070BD00F0C1F901232B702E77E6E70222DD
:103BBC009A71FFF7E5FDEAE7A0060020E106002078
:103BCC00C306002054070020B40600208B050020FB
:103BDC008C05002028070020C6060020580700206E
:103BEC00C8030020B80600208E0600200B28034BCB
:103BFC0028BF0B2040001870704700BF45070020FD
:103C0C002DE9F84F354C364EDFF8D880032001F003
:103C1C00C1FB04F17C07002318E094F835503249BD
:103C2C00DFF8C8B0C3EBC310F7224FF47A6A0CEB81
:103C3C00400080B212FB05A24DBBC1E90D55CD630E
:103C4C00FDF73CFF2B460234BC4211D04AF6AA22A7
:103C5C00C8F8002094F834C04FF00009BCF1FF0FF5
:103C6C00A6F80090D9D102340133BC42DBB2EDD1BD
:103C7C0001F052FB1E481C4A00881A49002393622B
:103C8C00D0624AF6AA2233800A60BDE8F88FBBFBEB
:103C9C00F2FA4FF00A0E174A174DB2FBFAF290B235
:103CAC00C1F828E0C8622A7800FB02F2FE2010FB63
:103CBC0003C0124BA3FB0232114BB3FBFAFA114BAC
:103CCC000AFB00F0120BA3FB0030C1E90D22CA6302
:103CDC00C0F34F10FDF7F2FE4B46B4E7D0040020C2
:103CEC00D206002000300040002C01408096980045
:103CFC0008000020001BB700450700205917B7D15A
:103D0C00A08601001F85EB5110B572B61A4B1B68CB
:103D1C0093F83030FF2B07D0FFF772FF174A184B80
:103D2C001288DA6262B610BD154C164B41F288321D
:103D3C00E2621B78E363C4E90D33032001F02AFB34
:103D4C003723A362C820FDF7B9FE052001F022FB42
:103D5C002823A362C820FDF7B1FE062001F01AFB50
:103D6C001923A362C820FDF7A9FE01F0D5FA064A73
:103D7C000023A3621380D1E700000020080000207C
:103D8C00002C014045070020D206002070B5164CCF
:103D9C0041F28833E36272B6144D154B3C224AF65D
:103DAC00AA262E60A2621B78E363C4E90D330120BE
:103DBC0001F0F0FA4B20FDF781FE5023A3624B205B
:103DCC00FDF77CFE5A23A3624B202E60FDF776FE96
:103DDC0001F0A2FA074A084912880023A3620B805B
:103DEC00E26262B670BD00BF002C014000300040A2
:103DFC004507002008000020D206002010B572B63E
:103E0C00144C154A154B4AF6AA2141F28830E0624F
:103E1C0011605022A2621B78E363C4E90D330320C6
:103E2C0001F0B8FA6420FDF749FE4623A362642032
:103E3C00FDF744FE2823A3626420FDF73FFE01F04A
:103E4C006BFA074A074912880023A3620B80E262CF
:103E5C0062B610BD002C0140003000404507002028
:103E6C0008000020D206002010B5124C124B41F273
:103E7C0088313222E162A2621B78E363C4E90D331C
:103E8C00022001F087FA9620FDF718FE0B4A4AF63D
:103E9C00AA211E2311609620A362FDF70FFE01F0EC
:103EAC003BFA074A074912880023A3620B80E2629F
:103EBC0010BD00BF002C0140450700200030004021
:103ECC0008000020D206002010B5124C124B41F213
:103EDC0088312822E162A2621B78E363C4E90D33C6
:103EEC00022001F057FA9620FDF7E8FD0B4A4AF63E
:103EFC00AA21502311609620A362FDF7DFFD01F08B
:103F0C000BFA074A074912880023A3620B80E2626E
:103F1C0010BD00BF002C01404507002000300040C0
:103F2C0008000020D20600202DE9F041154D41F289
:103F3C008833EB6272B6144BDFF850801B78144F49
:103F4C00EB63C5E90D3377244AF6AA26A7FB0430A8
:103F5C000009C8F8006001F01DFA63100A33AB6267
:103F6C000A20023CFDF7AAFD631CEFD101F0D4F945
:103F7C00084A094912880023AB620B80EA6262B6D8
:103F8C00BDE8F081002C01404507002000300040C6
:103F9C00CDCCCCCC08000020D2060020002103E0C0
:103FAC000B4B5B58435004310A480B4B42189A4256
:103FBC00F6D30A4A02E0002342F8043B084B9A422B
:103FCC00F9D301F051FB01F053FDFFF72FF87047C7
:103FDC00505B000800000020D8030020D80300200C
:103FEC0074080020FEE70000836861F3000383601F
:103FFC00704700BF00230122037043708370C270AE
:10400C00704700BF43680A7862F3082343608368F3
:10401C004A7862F34103836083688A7862F3CB2326
:10402C008360CB78C26A013B63F31752C26270475C
:10403C00836861F308238360704700BF836843F093
:10404C0008038360704700BF8068C0F3C0007047EE
:10405C00836843F004038360704700BF8068C0F33B
:10406C008000704710B4112917D8DFE811F0120046
:10407C0079007E00830088008D00920097009C00E0
:10408C00A100A600AB00B000B500BA00BF00C40090
:10409C007400046963F302040461013A0F2A0DD819
:1040AC00DFE802F00E13181D22272C31363B404559
:1040BC004A4F5408C36A61F3D333C36210BC7047D0
:1040CC00436B61F304034363F8E7436B61F34913F8
:1040DC004363F3E7436B61F38E234363EEE7436B78
:1040EC0061F3D3334363E9E7436B61F318534363E1
:1040FC00E4E7436B61F35D634363DFE7036B61F3F9
:10410C0004030363DAE7036B61F349130363D5E735
:10411C00036B61F38E230363D0E7036B61F3D3333B
:10412C000363CBE7036B61F318530363C6E7036BBD
:10413C0061F35D630363C1E7C36A61F30403C362A4
:10414C00BCE7C36A61F34913C362B7E7C36A61F39F
:10415C008E23C362B2E7C46863F35754C4609CE710
:10416C00046963F3C504046197E7046963F3881475
:10417C00046192E7046963F34B2404618DE70469DD
:10418C0063F30E34046188E7046963F3D13404618A
:10419C0083E7046963F3944404617EE7046963F381
:1041AC005754046179E7046963F31A64046174E792
:1041BC00046963F3DD6404616FE7C46863F30204AC
:1041CC00C4606AE7C46863F3C504C46065E7C46887
:1041DC0063F38814C46060E7C46863F34B24C46061
:1041EC005BE7C46863F30E34C46056E7C46863F3DA
:1041FC00D134C46051E7C46863F39444C4604CE7A1
:10420C00836807298CBF43F000736FF35963836095
:10421C00836861F353438360836862F31453836050
:10422C00704700BF024B9A6860F3D7529A60704790
:10423C0000240140836861F396538360704700BF8C
:10424C0020B9034BDA6961F30002DA61704700BFF1
:10425C000000014010B412490B6843F001030B60DD
:10426C000B689B07FCD54B680D4A6FF301034B6041
:10427C00536813F00C0FC3F38101F9D1136823F0C9
:10428C00867323F48033136041F610744FF480105E
:10429C004FF41F035160D462106310BC93607047DD
:1042AC0000100240030C03F1804303F5043300F0CB
:1042BC001F001A68012303FA00F030EA02030CBF56
:1042CC0001200020704700BF030C03F1804303F56D
:1042DC00043301291A6800F01F0006D0012101FAED
:1042EC0000F022EA00001860704701FA00F0104359
:1042FC0018607047030C03F1804303F50433012964
:10430C001A6800F01F0006D0012101FA00F022EA21
:10431C0000001860704701FA00F0104318607047F5
:10432C00042809D8DFE800F0090F151B03000F4B18
:10433C005A6A61F300025A6270470C4B1A6861F3B7
:10434C0000021A607047094B1A6861F310421A6038
:10435C007047064B1A6861F318621A607047034B7A
:10436C001A6A61F300021A62704700BF0010024023
:10437C00024B5A6860F307125A60704700100240F3
:10438C00024B5A6860F30A225A60704700100240D0
:10439C00024B5A6860F3CD225A60704700100240FD
:1043AC00054B5A6860F38F325A605A68C0F380002C
:1043BC0060F31C725A60704700100240134BA0B996
:1043CC005A6860F3104284465A60104B5A6861F385
:1043DC0095425A605A68C1F3011060F35E725A60DC
:1043EC00DA6A6CF31A62DA6270475A6842F4803205
:1043FC005A605A6801280BBF6FF3514242F40032E5
:10440C004FF0020C4FF0000C5A60DEE70010024037
:10441C00024B5A6860F301025A6070470010024068
:10442C00024B5868C0F38100704700BF0010024077
:10443C00012805D0054B5A6D6FF305125A6570476C
:10444C00024A536D43F0300353657047001002402D
:10445C0010B404680C490022C3B26FF3000404606A
:10446C00083B026042608260C260A2F13332A2FB60
:10447C0003231B09486810BC9B000F2202FA03F3AC
:10448C0003434B60704700BF00000240036861F3B8
:10449C0000030360704700BF034B1B68034214BF4B
:1044AC0001200020704700BF000002400023C0E93B
:1044BC000033C0E902330382704700BF03684BF638
:1044CC00EF721340036002680B89134303600368A7
:1044DC004A7C62F30D3303600368CA7B62F38B235F
:1044EC00036003688A7B62F30923036003684A7BD9
:1044FC0062F3C713036003680A7B62F386130360DD
:10450C000A7C036862F345130360D1E9002310B4FD
:10451C004C894460826010BCC3607047014BD8600A
:10452C00704700BF00200240024B0349034A596008
:10453C005A6070470020024023016745AB89EFCDDC
:10454C00024A136943F08003136170470020024054
:10455C001B4A136943F0020313615061136943F062
:10456C0040031361D368D90704D4D3685B0720D503
:10457C00012011E04FF08043D168C80712D4D168F4
:10458C00490713D4D268D20603F1FF334CBF022083
:10459C000320002B08BF0420094B1A696FF341025A
:1045AC001A617047013BE7D10420F5E7013B01207C
:1045BC00EFE7D36813F0100F14BF02200320EBE7D2
:1045CC0000200240194A136943F001031361016092
:1045DC00D368D90704D4D3685B0720D5012011E038
:1045EC004FF48013D168C80712D4D168490713D48B
:1045FC00D268D20603F1FF334CBF02200320002BFC
:10460C0008BF0420094B1A696FF300021A61704746
:10461C00013BE7D10420F5E7013B0120EFE7D3682C
:10462C0013F0100F14BF02200320EBE70020024010
:10463C0001F007039B00C90802FA03F20BD0416A90
:10464C004FF00F0C0CFA03F321EA03034362436AA5
:10465C001A4342627047016A4FF00F0C0CFA03F3D5
:10466C0021EA03030362036A1A430262704700BF24
:10467C0008B52E4B98421CD02D4B984223D02D4B75
:10468C0098422AD02C4B984209D02C4B98422ED0D1
:10469C002B4B984235D02B4B98423CD008BD2A4826
:1046AC000121FFF727FEBDE8084027480021FFF74E
:1046BC0021BE26480121FFF71DFEBDE80840234816
:1046CC000021FFF717BE22480121FFF713FEBDE8BA
:1046DC0008401F480021FFF70DBE1E480121FFF7BF
:1046EC0009FEBDE808401B480021FFF703BE1A482D
:1046FC000121FFF7FFFDBDE8084017480021FFF737
:10470C00F9BD16480121FFF7F5FDBDE80840134837
:10471C000021FFF7EFBD12480121FFF7EBFDBDE8CB
:10472C0008400F480021FFF7E5BD00BF002C0140F9
:10473C0000040040001000400020004000400140F8
:10474C000044014000480140080010000B000C0020
:10475C00010010000400100010000C0011000C00EF
:10476C0012000C00036861F3C7130360704700BFAD
:10477C00062909D8DFE801F013080E08090804001F
:10478C00C36962F3CB23C3617047C36962F3C3038C
:10479C00C3617047836962F3CB238361704783697C
:1047AC0062F3C30383617047062909D8DFE801F07F
:1047BC00090E13181D220400036A62F30C33036202
:1047CC007047036A62F3000303627047036A62F383
:1047DC00820303627047036A62F304130362704737
:1047EC00036A62F3861303627047036A62F3082359
:1047FC0003627047036A62F38A230362704700BF47
:10480C00064B0748B3F804C00649074AA0F800C095
:10481C0018885B8808801380704700BF4807002009
:10482C00E4060020E80600206006002030B5402396
:10483C0087B0002203214FF09040FDF759F908236F
:10484C00002203214FF09040FDF752F901214FF463
:10485C00A010FFF739FD3448344CFFF7F9FD01A8DF
:10486C00FFF724FE324B334A2F48019301A940F243
:10487C0001234FF440350492ADF81430CDE90245D4
:10488C00FFF71CFE28480121FFF700FE01212A48F2
:10489C00FFF71AFD0720FFF783FD6846FFF7AAFB19
:1048AC0001240325002325488DF8023069468DF834
:1048BC0000408DF801408DF80350FFF7A3FB1F4813
:1048CC002B4622462946FFF7CDFB1C482B460621DA
:1048DC000222FFF7C7FB2B462A4610211748FFF789
:1048EC00C1FB2046FFF79EFC224614480721FFF728
:1048FC0087FC12482146FFF79BFB10482146FFF727
:10490C0073FB0E48FFF79AFB0C48FFF79DFB002842
:10491C00FAD10A48094CFFF79BFB2046FFF79EFB98
:10492C000028FAD107B030BD08000240480700202B
:10493C004C24014000010101090018000024014031
:10494C0048F2E80300FB03F3002BB8BF03F6FF7338
:10495C00064A43F23810A0EB233082FB0023C01729
:10496C00A0EBE3000F3000B2704700BF310CC33036
:10497C00FEE700BFFEE700BFFEE700BFFEE700BF9B
:10498C00704700BF704700BF704700BF704700BF43
:10499C0010B50220FFF780FD012800D010BD054C9A
:1049AC006060FFF72DFF0820FFF776FD012808BF98
:1049BC00606010BD0000024008B52020FFF76CFDC0
:1049CC00012806D10A4B10225A60DA696FF30002F3
:1049DC00DA618020FFF760FD012800D008BD044B90
:1049EC0010225A60DA696FF30002DA6108BD00BF69
:1049FC000000024010B5194B1C788CB94FF40030F4
:104A0C00FFF74AFD01281AD04FF40020FFF744FDB0
:104A1C00012800D010BD124B4FF480325A6010BDEB
:104A2C000F4B4FF480325A609A6D6FF300029A6507
:104A3C00FFF720F80B4B4FF400421A6110BD084BE6
:104A4C004FF480325A609A6D64F300029A65FFF756
:104A5C0011F8044B4FF400421A61D5E78B05002086
:104A6C000000024000040140084B5A69920209D52B
:104A7C000749084A4FF4001058614B6A1268B3EBAF
:104A8C00520F00D87047FDF75DBB00BF000401401A
:104A9C00001000403C000020024B4FF6FE721A61E1
:104AAC00FEF7D4B800200040024B00221A61FDF73B
:104ABC000BBB00BF00440140034B4FF6FE714FF699
:104ACC00FD7219611A61704700400140704700BFC8
:104ADC00074B1A69910744BF4FF6FD721A61044BDC
:104AEC001A69D20744BF4FF6FE721A61704700BFB5
:104AFC0000040040064A07491368013313604B69F0
:104B0C001B0400D470474FF400434B61FDF788BF82
:104B1C005007002000040140024BD869C0F380709C
:104B2C00704700BF00000140044B1A684FF400119D
:104B3C0022F400121A605961704700BF0004014052
:104B4C00024A136843F400131360704700040140D9
:104B5C00054B064A1B78002B0CBF4FF400110021AB
:104B6C005B059160D3607047350000200004014064
:104B7C002DE9F0430029B4BFCE1C0E4626F00303EA
:104B8C00073383B023F0070300AFADEB030DB61072
:104B9C006D4688468146144600213246284600F070
:104BAC008BFFB8F1030F17DD4846291F00228378CD
:104BBC0090F8038090F800E090F801C01B0443EAE1
:104BCC00086343EA0E03013243EA0C23964241F890
:104BDC00043F00F10400EADC3E60FFF7A5FCC4F3DF
:104BEC000903EBB100237B607B683A689A4211D9C8
:104BFC0078687B6804EB800055F82310FFF7E2FC23
:104C0C000320FFF78BFC7B6801337B607A683B6881
:104C1C009A42EDD3FFF794FC0C37BD46BDE8F08308
:104C2C002046FFF795FCDDE7002A09DD431E013124
:104C3C0003EB020C081AC25C03F8012F6345FAD18E
:104C4C00704700BF38B5164D164CAB6DAB652046A2
:104C5C00FFF70EFD144B41210B22A16122621A7841
:104C6C00A2624FF6FF73E3626269104B002142F0BF
:104C7C000102626103F8041B0D4A61622A660D4A47
:104C8C006B661378EB65E36843F40073E3602368A9
:104C9C0043F0010340F68B122360AA6538BD00BFB8
:104CAC000000024000400140D203002054070020C5
:104CBC0034400140CE03002038B51D4D1D4CAB6D6A
:104CCC0043F01003AB652046FFF7D2FC60210323B1
:104CDC00194AA16123621278184BA2624C2101225D
:104CEC00E1621A7063691649164A43F00103636165
:104CFC00154B29666A665B781733EB65AB6D43F031
:104D0C000203AB65AB6D43F00803AB65AB6D43F0D1
:104D1C000103AB65E36843F40073E360636C43F435
:104D2C0000436364236843F00103236038BD00BF74
:104D3C0000000240004001403807002054070020CA
:104D4C003440014038040020D20300204FF090433F
:104D5C00186900F0040070470423012202214FF06F
:104D6C009040FCF7D1BE00BF62B670471C4B40F2BE
:104D7C00531210B51A60FFF76DFA01210020FFF7EE
:104D8C00CFFA0120FFF78EFA01280446F9D1002052
:104D9C001D21FFF713FB21460220FFF7C1FA192052
:104DAC00FFF780FA01280446F9D10020FFF7E0FA5A
:104DBC000020FFF7EDFA0020FFF7E2FA2046FFF79C
:104DCC0037FB0220FFF724FBFFF72AFB0228FBD15D
:104DDC000020FFF72DFBBDE8104000F075BC00BFB4
:104DEC000020024008B511480121FFF76DFA01219E
:104DFC004FF4C010FFF768FA0223002203214FF092
:104E0C009040FCF775FE2023002203214FF09040C8
:104E1C00FCF76EFE064B002083F80C034FF4805217
:104E2C001A600121BDE80840FFF70ABA110014000E
:104E3C0000E100E0084B10B44CF6CC4245F255545E
:104E4C001C6003201A604FF47A614AF6AA2258605B
:104E5C0010BC99601A6070470030004038B53F486C
:104E6C003F4C0121FFF730FA0025682340F6B8319A
:104E7C0046F66802E1622046A5622946A261E3611A
:104E8C000122FFF775FC204601220221FFF770FC7E
:104E9C00012220460421FFF76BFC20460121FFF77D
:104EAC0061FC636C2F483C2262F3070363640121AD
:104EBC00FFF70AFA2C4C2D480121FFF705FA0223C3
:104ECC0019462A462046FCF713FE2A4620460123A3
:104EDC000221FCF70DFE80232A4602214FF0904060
:104EEC00FCF706FE204602220121FFF7A1FB294612
:104EFC0020460222FFF79CFB022207214FF0904034
:104F0C00FFF796FB2A464FF4806302214FF0904046
:104F1C00FCF7EEFD2A464FF4007302214FF090404F
:104F2C00FCF7E6FD4FF480732A4602214FF09040C7
:104F3C00FCF7DEFD02220A214FF09040FFF778FBD0
:104F4C00022209214FF09040FFF772FBBDE8384078
:104F5C00022208214FF09040FFF76ABB0B001800AB
:104F6C00002C014011001400000400481200140031
:104F7C0008B516480121FFF7A7F915480121FFF7DD
:104F8C00A3F90423002202214FF09040FCF7B0FD5E
:104F9C0001214FF4A010FFF797F90E490E4B40F684
:104FAC008A101022886583F80B234FF40061196076
:104FBC000A4B4FF6FF71D9629A621A6842F080026E
:104FCC001A601A6842F001021A6008BD1100140040
:104FDC00100018000000024000E100E00040014019
:104FEC0070B5FFF7C3FE254C01214FF4A010FFF75D
:104FFC006BF9102384F80B334FF400632360FFF735
:10500C002DFF1F480121FFF75FF91E4B1E484FF67D
:10501C00FF763B25DE6201219D62FFF755F91B4BA4
:10502C003222DA6277229A62302384F813334FF4F7
:10503C0000232360FFF7D6FE15480121FFF744F942
:10504C00144B1548DE629D621A6842F080021A60A9
:10505C000121FFF739F9114B4FF4FA72DA629D62B4
:10506C001A68002142F080021A6084F815134FF47C
:10507C0000132360BDE87040FFF77ABF00E100E049
:10508C0004001C000010004008001C000020004020
:10509C0012001800004801401100180000440140A3
:1050AC00014B5863704700BF002C0140014B9863C3
:1050BC00704700BF002C0140014BD863704700BF04
:1050CC00002C0140024A536943F0010353617047BD
:1050DC00002C0140024B0022DA625A62704700BF7A
:1050EC000040014010B5384C012220460021FFF74A
:1050FC005BFB204601220221FFF756FB20460122D2
:10510C000421FFF751FB012211462046FFF74CFB0F
:10511C00204601220321FFF747FB204601220521EF
:10512C00FFF742FB2268294B294842F0010222601A
:10513C00626C42F400426264626942F00102626194
:10514C001968244A41F001011960596941F00101C3
:10515C005961D96821F00101D960016841F0010160
:10516C000160116841F0010111605169A3F592339E
:10517C0041F0010151611A6842F001021A605A694A
:10518C0042F001025A61DA6842F0010204F5A054BF
:10519C00DA60FFF74BFB012200212046FFF704FBEE
:1051AC0023680D4A43F001032021236082F8071382
:1051BC008023136002F1C04202F50C52136843F4D1
:1051CC000043136010BD00BF002C0140004401409F
:1051DC00004801400010004000E100E070B54FF0C5
:1051EC00904420464FF4806300220121FCF780FCA0
:1051FC004FF48060A0624FF400732046002201211E
:10520C00FCF776FC4FF400700F4DA0624FF48073E6
:10521C00204600220121FCF76BFC02234FF4807026
:10522C001946A06200222846FCF762FC284601239E
:10523C0000220221FCF75CFC20468023BDE8704074
:10524C0000220221FCF754BC0004004810B50E4BA0
:10525C001A788AB90D4C012319462046FCF748FCF4
:10526C000123A362BDE810404FF400730022022119
:10527C004FF09040FCF73CBC044801230022022173
:10528C00FCF736FCEEE700BF0400002000040048E9
:10529C0010B50F4B1A78802392B901214FF0904032
:1052AC00FCF726FC4FF0904380229A62BDE8104038
:1052BC004FF48073002202214FF09040FCF718BC91
:1052CC00002202214FF09040FCF712FCEEE700BFE9
:1052DC000400002010B50E4B1A788AB90D4C02232D
:1052EC0001212046FCF704FC0223A362BDE8104018
:1052FC004FF48063002202214FF09040FCF7F8BB82
:10530C000223044800221946FCF7F2FBEEE700BF2B
:10531C00040000200004004870B51D4E022300223A
:10532C00012130464FF09044FCF7E2FB02204FF491
:10533C00806300220121B0622046FCF7D9FB0123D7
:10534C004FF480601D4619460022A0623046FCF7DF
:10535C00CFFB4FF40073002229462046B562FCF7C0
:10536C00C7FB4FF4007180230022A162204629461E
:10537C00FCF7BEFB8023A36200224FF48073294606
:10538C002046FCF7B5FB4FF48073A36270BD00BFE1
:10539C0000040048013870B5052833D8DFE810F058
:1053AC0033005F008B00B800E5000600854C01233C
:1053BC001D46194620460022FCF79AFBA5624FF0C9
:1053CC0090444FF40073002229462046FCF790FBD2
:1053DC004FF4007180230022A16220462946FCF77D
:1053EC0087FB802000224FF480732946A061204661
:1053FC00FCF77EFB4FF48073A362FFF76BFF724BDD
:10540C00724ADA6170BD4FF0904480230022012172
:10541C002046FCF76DFB80206A4DA0624FF4807330
:10542C00002201212046FCF763FB01234FF480701E
:10543C0019460022A0622846FCF75AFB01210022E3
:10544C004FF40073A9612046FCF752FB4FF4007334
:10545C00A362FFF73FFF5C4B5D4ADA6170BD594CAC
:10546C000223002201212046FCF742FB4FF090451D
:10547C0002204FF4806300220121A0622846FCF731
:10548C0037FB01234FF4806019460022A8622046A6
:10549C00FCF72EFB012100224FF40073A16128467A
:1054AC00FCF726FB4FF40073AB62FFF7F1FE464BA3
:1054BC00484ADA6170BD434C01231D464FF09046BB
:1054CC00194600222046FCF713FB4FF40073002210
:1054DC0029463046A562FCF70BFB4FF40072022301
:1054EC00B262294600222046FCF702FB02224FF44E
:1054FC0080632946A26130460022FCF7F9FA4FF48A
:10550C008063B362FFF7C4FE2F4B304ADA6170BD83
:10551C004FF090448023002201212046FCF7E8FA4A
:10552C008020284DA0624FF4807300220121204678
:10553C00FCF7DEFA4FF4807102230022A1622846A8
:10554C000121FCF7D5FA022100224FF48063A961F6
:10555C0020460121FCF7CCFA4FF48063A362FFF7DD
:10556C0075FE194B1A4ADA6170BD164D02230022E2
:10557C0001212846FCF7BCFA4FF0904402214FF46D
:10558C0080630022A96220460121FCF7B1FA4FF496
:10559C008060802300220121A0622046FCF7A8FA3B
:1055AC00802000224FF480730121A0612046FCF77B
:1055BC009FFA4FF48073A362FFF748FE024B054A33
:1055CC00DA6170BD0004004800000140C1000040D9
:1055DC00D1000040E100004070B51D4E02230022B6
:1055EC00012130464FF09044FCF782FA02204FF430
:1055FC00806300220121B0612046FCF779FA012377
:10560C004FF480601D4619460022A0623046FCF71C
:10561C006FFA4FF40073002229462046B561FCF75F
:10562C0067FA4FF4007180230022A16220462946BC
:10563C00FCF75EFA8023A36100224FF480732946A5
:10564C002046FCF755FA4FF48073A36270BD00BF7F
:10565C000004004808B5FFF73DFEFFF7F7FDBDE875
:10566C000840FFF715BE00BF30B414490B6843F077
:10567C0001030B600B689B07FCD54B680F4A6FF35B
:10568C0001034B60536813F00C0FC3F38101F9D184
:10569C0013680B480B4C23F0867323F48033136090
:1056AC0041F610754FF480135160D56213634FF4BB
:1056BC001F039360846030BC704700BF0010024031
:1056CC0000ED00E00010000810B5FEF7A9FE60B177
:1056DC00022816D02C482D4B2D495B682D4AC3F35C
:1056EC000313CB5CD840106010BD284B5A6D92054B
:1056FC00F0D51A6B244B284812F0007F08BF1846CF
:10570C00E9E7224B5968DA6A002AC1F300411CDA36
:10571C00D86ADC6ADA6AC0F3031EC4F3082402F008
:10572C00070259B35B681D4813F4003F164B4FF04A
:10573C00000108BF18460EFA02F20023A4FB000E6B
:10574C0004FB01F1FBF73AFFC5E758685B6813F0FF
:10575C00C04FC0F38340C3F341720BD10F2809D063
:10576C00023019B1094B5B689B0309D50B4B03FB4A
:10577C0000F0B0E7013000EB0210F2E70748DAE77F
:10578C00014B03FB00F0A6E700127A000010024068
:10579C00245B0008D4030020006CDC0200093D00EF
:1057AC002DE9F047089E0D4604468846002B4DD146
:1057BC008A42944668D9B2FA82F252B101FA02F3E3
:1057CC00C2F1200120FA01F10CFA02FC41EA0308B3
:1057DC0094404FEA1C45210CB8FBF5FE1FFA8CF7E0
:1057EC0005FB1E8341EA03430EFB07F199420BD9DB
:1057FC001CEB03030EF1FF3080F01E81994240F246
:10580C001B81AEF1020E63445B1AA4B2B3FBF5F03C
:10581C0005FB103344EA034400FB07F7A7420AD9FF
:10582C001CEB040400F1FF3380F00881A74240F226
:10583C00058164440238E41B40EA0E4000211EB18D
:10584C00D4400023C6E90043BDE8F0878B4208D959
:10585C00002E00F0EE800021C6E900050846BDE8E8
:10586C00F087B3FA83F100294AD1AB4202D38242CA
:10587C0000F2F980841A65EB030301209846002E90
:10588C00E2D0C6E90048DFE702B9FFDEB2FA82F2E5
:10589C00002A40F09180A1EB0C054FEA1C471FFA3F
:1058AC008CFE0121B5FBF7F307FB1350250C45EAE1
:1058BC0000450EFB03F0A84208D91CEB050503F1CB
:1058CC00FF3802D2A84200F2CB8043462D1AA4B274
:1058DC00B5FBF7F007FB105544EA05440EFB00FE40
:1058EC00A64508D91CEB040400F1FF3502D2A645ED
:1058FC0000F2BB802846A4EB0E0440EA03409EE76E
:10590C00C1F120078B4022FA07FC4CEA030C20FA69
:10591C0007F405FA01F31C43FD404FEA1C4900FA59
:10592C0001F3B5FBF9F8200C1FFA8CFE09FB185596
:10593C0040EA054508FB0EF0A84202FA01F20BD929
:10594C001CEB050508F1FF3A80F08880A84240F274
:10595C008580A8F1020865442D1AA4B2B5FBF9F0B4
:10596C0009FB105544EA054500FB0EFEAE4508D96F
:10597C001CEB050500F1FF346CD2AE456AD9023838
:10598C00654440EA0840A0FB0294A5EB0E05A54235
:10599C00C846A64656D353D05EB1B3EB080265EBAE
:1059AC000E0505FA07F722FA01F3CD401F43C6E9AD
:1059BC0000750021BDE8F087C2F1200320FA03F145
:1059CC000CFA02FC25FA03F395400D434FEA1C47F1
:1059DC001FFA8CFEB3FBF7F107FB11302B0C43EADB
:1059EC00004301FB0EF0984204FA02F408D91CEBB8
:1059FC00030301F1FF382FD298422DD902396344A9
:105A0C001B1AADB2B3FBF7F007FB103345EA0345A5
:105A1C0000FB0EF3AB4208D91CEB050500F1FF3877
:105A2C0016D2AB4214D902386544ED1A40EA014152
:105A3C0038E73146304607E78646E5E61846FAE68B
:105A4C004B45A9D2B9EB020864EB0C0E0138A3E765
:105A5C004046EAE7204694E74146D1E7D0467BE74B
:105A6C00023B654432E7084609E76444023842E7E2
:105A7C0070B50D4D0D4C641BA4100026A64209D127
:105A8C000B4D0C4C00F034F8641BA4100026A642FD
:105A9C0005D170BD55F8043B98470136EEE755F833
:105AAC00043B98470136F2E7485B0008485B000866
:105ABC00485B00084C5B000802440346934200D14B
:105ACC00704703F8011BF9E710B50139034632B1F1
:105ADC0011F8014F03F8014B013A002CF7D11A448D
:105AEC000021934200D110BD03F8011BF9E700001F
:105AFC00F8B500BFF8BC08BC9E467047F8B500BFAF
:085B0C00F8BC08BC9E4670477E
:105B1400191B12131D1516171A090A0B1E0D0E0F49
:105B24000000000000000000010203040607080949
:0C5B34004D4F4F4E204553430000000031
:085B40006CFCFF7F0100000076
:045B4800211600081A
:045B4C00FD1500083B
:105B5000007C0008010101028813881378003C00D2
:105B60003C00D0070E004C046C07DC0564004A01C1
:105B7000050A0A3C9001C800FF00CA000501140094
:105B80004600DC050201050101010000D4300000DF
:105B90000105010AE80300001027000000000000D2
:105BA0000A00000000000000640000000000000087
:105BB00000000000000000000000000010270000AE
:105BC00050C30000B400D007D0070000B400B700F5
:105BD000BA00BD00C100C400C700CA00CD00D0009B
:105BE000D300D600D900DC00E000E300E600E900C5
:105BF000EC00EF00F200F500F700FA00FD000001F4
:105C00000301060109010B010E0111011301160127
:105C100019011B011E0120012301250128012A0170
:105C20002C012F0131013301350138013A013C01CA
:105C30003E014001420144014601470149014B0137
:105C40004D014E01500151015301540156015701BC
:105C500058015A015B015C015D015E015F01600159
:105C6000610162016301630164016501650166010F
:105C700066016701670167016801680168016801E1
:105C800068016801680168016801670167016701CF
:105C900066016601650165016401630163016201DA
:105CA000610160015F015E015D015C015B015A0100
:105CB00058015701560154015301510150014E0141
:105CC0004D014B0149014701460144014201400198
:105CD0003E013C013A0138013501330131012F0108
:105CE0002C012A0128012501230120011E011B018D
:105CF00019011601130111010E010B010901060121
:105D000003010001FD00FA00F700F500F200EF00CA
:105D1000EC00E900E600E300E000DC00D900D6007A
:105D2000D300D000CD00CA00C700C400C100BD0030
:105D3000BA00B700B400B100AE00AB00A700A400E9
:105D4000A1009E009B009800950092008F008C009F
:105D50008800850082007F007C0079007600730057
:105D600071006E006B006800650062005F005D00FE
:105D70005A005700550052004F004D004A0048009D
:105D80004500430040003E003C003900370035002C
:105D9000330030002E002C002A00280026002400AA
:105DA000220021001F001D001B001A001800170010
:105DB000150014001200110010000E000D000C0060
:105DC0000B000A0009000800070006000500050096
:105DD00004000300030002000200010001000100B2
:105DE00000000000000000000000000000000000B3
:105DF0000000010001000100020002000300030096
:105E000004000500050006000700080009000A005C
:105E10000B000C000D000E00100011001200140009
:105E20001500170018001A001B001D001F0021009C
:105E300022002400260028002A002C002E0030001A
:105E400033003500370039003C003E00400043007D
:105E5000450048004A004D004F00520055005700D1
:105E60005A005D005F006200650068006B006E0014
:105E700071007300760079007C007F00820085004D
:105E800088008C008F009200950098009B009E0077
:105E9000A100A400A700AB00AE00B1003C001E03AF
:105EA000030000000000000090010000000000005E
:105EB000E8030000000000000000000000000000F7
:105EC00000000000204E0000A086010064190000C0
:105ED000000000000100000000000000320000008F
:105EE00000000000000000000000000000000000B2
:105EF0001027000050C30000010201006E00D0070F
:105F000064000500E8030614320078004B005A00D4
:105F10005A001E0002010000FA000000204E20007E
:085F200050C3110700127A00C2
:107BE0004D4F4F4E50494C4F545F3530415F4634F6
:107BF0003231000000000000000000000000000022
:0400000508003FA907
:00000001FF
